{
  "contractName": "Crud",
  "abi": [
    {
      "inputs": [],
      "name": "nextId",
      "outputs": [
        {
          "internalType": "uint256",
          "name": "",
          "type": "uint256"
        }
      ],
      "stateMutability": "view",
      "type": "function"
    },
    {
      "inputs": [
        {
          "internalType": "uint256",
          "name": "",
          "type": "uint256"
        }
      ],
      "name": "players",
      "outputs": [
        {
          "internalType": "uint256",
          "name": "id",
          "type": "uint256"
        },
        {
          "internalType": "string",
          "name": "name",
          "type": "string"
        }
      ],
      "stateMutability": "view",
      "type": "function"
    },
    {
      "inputs": [
        {
          "internalType": "string",
          "name": "name",
          "type": "string"
        }
      ],
      "name": "create",
      "outputs": [],
      "stateMutability": "nonpayable",
      "type": "function"
    },
    {
      "inputs": [
        {
          "internalType": "uint256",
          "name": "id",
          "type": "uint256"
        }
      ],
      "name": "read",
      "outputs": [
        {
          "internalType": "uint256",
          "name": "",
          "type": "uint256"
        },
        {
          "internalType": "string",
          "name": "",
          "type": "string"
        }
      ],
      "stateMutability": "view",
      "type": "function"
    },
    {
      "inputs": [
        {
          "internalType": "uint256",
          "name": "id",
          "type": "uint256"
        },
        {
          "internalType": "string",
          "name": "name",
          "type": "string"
        }
      ],
      "name": "upload",
      "outputs": [],
      "stateMutability": "nonpayable",
      "type": "function"
    },
    {
      "inputs": [
        {
          "internalType": "uint256",
          "name": "id",
          "type": "uint256"
        }
      ],
      "name": "remove",
      "outputs": [],
      "stateMutability": "nonpayable",
      "type": "function"
    }
  ],
  "bytecode": "0x60806040526001805534801561001457600080fd5b50610a7f806100246000396000f3fe608060405234801561001057600080fd5b50600436106100625760003560e01c80634cc82215146100675780634d725e951461008357806361b8ce8c1461009f578063b6a46b3b146100bd578063ed2e5a97146100d9578063f71d96cb1461010a575b600080fd5b610081600480360381019061007c91906105db565b61013b565b005b61009d6004803603810190610098919061074e565b610189565b005b6100a76101d5565b6040516100b491906107b9565b60405180910390f35b6100d760048036038101906100d291906107d4565b6101db565b005b6100f360048036038101906100ee91906105db565b610261565b6040516101019291906108a5565b60405180910390f35b610124600480360381019061011f91906105db565b610353565b6040516101329291906108a5565b60405180910390f35b60006101468261040f565b90506000818154811061015c5761015b6108d5565b5b906000526020600020906002020160008082016000905560018201600061018391906104ae565b50505050565b60006101948361040f565b905081600082815481106101ab576101aa6108d5565b5b906000526020600020906002020160010190805190602001906101cf9291906104ee565b50505050565b60015481565b6000604051806040016040528060015481526020018381525090806001815401808255809150506001900390600052602060002090600202016000909190919091506000820151816000015560208201518160010190805190602001906102439291906104ee565b5050506001600081548092919061025990610933565b919050555050565b6000606060006102708461040f565b905060008181548110610286576102856108d5565b5b906000526020600020906002020160000154600082815481106102ac576102ab6108d5565b5b90600052602060002090600202016001018080546102c9906109ab565b80601f01602080910402602001604051908101604052809291908181526020018280546102f5906109ab565b80156103425780601f1061031757610100808354040283529160200191610342565b820191906000526020600020905b81548152906001019060200180831161032557829003601f168201915b505050505090509250925050915091565b6000818154811061036357600080fd5b906000526020600020906002020160009150905080600001549080600101805461038c906109ab565b80601f01602080910402602001604051908101604052809291908181526020018280546103b8906109ab565b80156104055780601f106103da57610100808354040283529160200191610405565b820191906000526020600020905b8154815290600101906020018083116103e857829003601f168201915b5050505050905082565b600080600090505b60008054905081101561046d578260008281548110610439576104386108d5565b5b906000526020600020906002020160000154141561045a57809150506104a9565b808061046590610933565b915050610417565b506040517f08c379a00000000000000000000000000000000000000000000000000000000081526004016104a090610a29565b60405180910390fd5b919050565b5080546104ba906109ab565b6000825580601f106104cc57506104eb565b601f0160209004906000526020600020908101906104ea9190610574565b5b50565b8280546104fa906109ab565b90600052602060002090601f01602090048101928261051c5760008555610563565b82601f1061053557805160ff1916838001178555610563565b82800160010185558215610563579182015b82811115610562578251825591602001919060010190610547565b5b5090506105709190610574565b5090565b5b8082111561058d576000816000905550600101610575565b5090565b6000604051905090565b600080fd5b600080fd5b6000819050919050565b6105b8816105a5565b81146105c357600080fd5b50565b6000813590506105d5816105af565b92915050565b6000602082840312156105f1576105f061059b565b5b60006105ff848285016105c6565b91505092915050565b600080fd5b600080fd5b6000601f19601f8301169050919050565b7f4e487b7100000000000000000000000000000000000000000000000000000000600052604160045260246000fd5b61065b82610612565b810181811067ffffffffffffffff8211171561067a57610679610623565b5b80604052505050565b600061068d610591565b90506106998282610652565b919050565b600067ffffffffffffffff8211156106b9576106b8610623565b5b6106c282610612565b9050602081019050919050565b82818337600083830152505050565b60006106f16106ec8461069e565b610683565b90508281526020810184848401111561070d5761070c61060d565b5b6107188482856106cf565b509392505050565b600082601f83011261073557610734610608565b5b81356107458482602086016106de565b91505092915050565b600080604083850312156107655761076461059b565b5b6000610773858286016105c6565b925050602083013567ffffffffffffffff811115610794576107936105a0565b5b6107a085828601610720565b9150509250929050565b6107b3816105a5565b82525050565b60006020820190506107ce60008301846107aa565b92915050565b6000602082840312156107ea576107e961059b565b5b600082013567ffffffffffffffff811115610808576108076105a0565b5b61081484828501610720565b91505092915050565b600081519050919050565b600082825260208201905092915050565b60005b8381101561085757808201518184015260208101905061083c565b83811115610866576000848401525b50505050565b60006108778261081d565b6108818185610828565b9350610891818560208601610839565b61089a81610612565b840191505092915050565b60006040820190506108ba60008301856107aa565b81810360208301526108cc818461086c565b90509392505050565b7f4e487b7100000000000000000000000000000000000000000000000000000000600052603260045260246000fd5b7f4e487b7100000000000000000000000000000000000000000000000000000000600052601160045260246000fd5b600061093e826105a5565b91507fffffffffffffffffffffffffffffffffffffffffffffffffffffffffffffffff82141561097157610970610904565b5b600182019050919050565b7f4e487b7100000000000000000000000000000000000000000000000000000000600052602260045260246000fd5b600060028204905060018216806109c357607f821691505b602082108114156109d7576109d661097c565b5b50919050565b7f706c6179657220646f65736e6f74206578697374000000000000000000000000600082015250565b6000610a13601483610828565b9150610a1e826109dd565b602082019050919050565b60006020820190508181036000830152610a4281610a06565b905091905056fea26469706673582212203e75b197d8e92bd7fb9541a3e3a356454aec44a54eaae2d6b161ca49d3bb817c64736f6c634300080b0033",
  "immutableReferences": {},
  "source": "// SPDX-License-Identifier: MIT\npragma solidity >=0.4.22 <0.9.0;\n\ncontract Crud {\n    struct Player {\n        uint id;\n        string name;\n    }\n\n    Player[] public players;\n    uint public nextId = 1;\n\n    function create(string memory name) public {\n        players.push(Player(nextId, name));\n        nextId++;\n    }\n\n    function read(uint id) public view returns (uint, string memory) {\n        uint i = loopId(id);\n        return (players[i].id, players[i].name);\n    }\n\n    function upload(uint id, string memory name) public {\n        uint i = loopId(id);\n        players[i].name = name;\n    }\n\n    function remove(uint id) public {\n        uint i = loopId(id);\n        delete players[i];\n    }\n\n    function loopId(uint id) internal view returns (uint _id) {\n        for (uint i = 0; i < players.length; i++) {\n            if (players[i].id == id) {\n                return i;\n            }\n        }\n\n        revert(\"player doesnot exist\");\n    }\n}\n",
  "sourcePath": "/Users/kiet_canvas/workspace/blockchain/learn-blockchain/crud-solidity-truffle/contracts/Crud.sol",
  "compiler": {
    "name": "solc",
    "version": "0.8.11+commit.d7f03943.Emscripten.clang"
  },
  "schemaVersion": "3.4.5",
  "updatedAt": "2022-03-03T08:33:58.204Z",
  "devdoc": {
    "kind": "dev",
    "methods": {},
    "version": 1
  },
  "userdoc": {
    "kind": "user",
    "methods": {},
    "version": 1
  }
}